{
  "contractName": "Market",
  "abi": [
    {
      "anonymous": false,
      "inputs": [
        {
          "indexed": false,
          "internalType": "uint256",
          "name": "listingId",
          "type": "uint256"
        },
        {
          "indexed": false,
          "internalType": "address",
          "name": "seller",
          "type": "address"
        }
      ],
      "name": "Cancel",
      "type": "event"
    },
    {
      "anonymous": false,
      "inputs": [
        {
          "indexed": false,
          "internalType": "uint256",
          "name": "listingId",
          "type": "uint256"
        },
        {
          "indexed": false,
          "internalType": "address",
          "name": "seller",
          "type": "address"
        },
        {
          "indexed": false,
          "internalType": "address",
          "name": "token",
          "type": "address"
        },
        {
          "indexed": false,
          "internalType": "uint256",
          "name": "tokenId",
          "type": "uint256"
        },
        {
          "indexed": false,
          "internalType": "uint256",
          "name": "price",
          "type": "uint256"
        }
      ],
      "name": "Listed",
      "type": "event"
    },
    {
      "anonymous": false,
      "inputs": [
        {
          "indexed": false,
          "internalType": "uint256",
          "name": "listingId",
          "type": "uint256"
        },
        {
          "indexed": false,
          "internalType": "address",
          "name": "buyer",
          "type": "address"
        },
        {
          "indexed": false,
          "internalType": "address",
          "name": "token",
          "type": "address"
        },
        {
          "indexed": false,
          "internalType": "uint256",
          "name": "tokenId",
          "type": "uint256"
        },
        {
          "indexed": false,
          "internalType": "uint256",
          "name": "price",
          "type": "uint256"
        }
      ],
      "name": "Sale",
      "type": "event"
    },
    {
      "inputs": [
        {
          "internalType": "uint256",
          "name": "listingId",
          "type": "uint256"
        }
      ],
      "name": "getListing",
      "outputs": [
        {
          "components": [
            {
              "internalType": "enum Market.ListingStatus",
              "name": "stauts",
              "type": "uint8"
            },
            {
              "internalType": "address",
              "name": "seller",
              "type": "address"
            },
            {
              "internalType": "address",
              "name": "token",
              "type": "address"
            },
            {
              "internalType": "uint256",
              "name": "idToken",
              "type": "uint256"
            },
            {
              "internalType": "uint256",
              "name": "price",
              "type": "uint256"
            }
          ],
          "internalType": "struct Market.Listing",
          "name": "",
          "type": "tuple"
        }
      ],
      "stateMutability": "view",
      "type": "function"
    },
    {
      "inputs": [
        {
          "internalType": "address",
          "name": "token",
          "type": "address"
        },
        {
          "internalType": "uint256",
          "name": "idToken",
          "type": "uint256"
        },
        {
          "internalType": "uint256",
          "name": "price",
          "type": "uint256"
        }
      ],
      "name": "listToken",
      "outputs": [],
      "stateMutability": "nonpayable",
      "type": "function"
    },
    {
      "inputs": [
        {
          "internalType": "uint256",
          "name": "listingId",
          "type": "uint256"
        }
      ],
      "name": "buyToken",
      "outputs": [],
      "stateMutability": "payable",
      "type": "function"
    },
    {
      "inputs": [
        {
          "internalType": "uint256",
          "name": "listingId",
          "type": "uint256"
        }
      ],
      "name": "cancel",
      "outputs": [],
      "stateMutability": "nonpayable",
      "type": "function"
    }
  ],
  "bytecode": "0x60806040526000805534801561001457600080fd5b50610ff0806100246000396000f3fe60806040526004361061005c576000357c010000000000000000000000000000000000000000000000000000000090048063107a274a146100615780632d296bf11461009e57806340e58ee5146100ba5780637e07590d146100e3575b600080fd5b34801561006d57600080fd5b5061008860048036038101906100839190610a4e565b61010c565b6040516100959190610baa565b60405180910390f35b6100b860048036038101906100b39190610a4e565b610234565b005b3480156100c657600080fd5b506100e160048036038101906100dc9190610a4e565b61052e565b005b3480156100ef57600080fd5b5061010a60048036038101906101059190610bf1565b61076c565b005b6101146109a6565b600160008381526020019081526020016000206040518060a00160405290816000820160009054906101000a900460ff16600281111561015757610156610a7b565b5b600281111561016957610168610a7b565b5b81526020016000820160019054906101000a900473ffffffffffffffffffffffffffffffffffffffff1673ffffffffffffffffffffffffffffffffffffffff1673ffffffffffffffffffffffffffffffffffffffff1681526020016001820160009054906101000a900473ffffffffffffffffffffffffffffffffffffffff1673ffffffffffffffffffffffffffffffffffffffff1673ffffffffffffffffffffffffffffffffffffffff168152602001600282015481526020016003820154815250509050919050565b60006001600083815260200190815260200160002090506000600281111561025f5761025e610a7b565b5b8160000160009054906101000a900460ff16600281111561028357610282610a7b565b5b146102c3576040517f08c379a00000000000000000000000000000000000000000000000000000000081526004016102ba90610ca1565b60405180910390fd5b3373ffffffffffffffffffffffffffffffffffffffff168160000160019054906101000a900473ffffffffffffffffffffffffffffffffffffffff1673ffffffffffffffffffffffffffffffffffffffff161415610356576040517f08c379a000000000000000000000000000000000000000000000000000000000815260040161034d90610d0d565b60405180910390fd5b806003015434101561039d576040517f08c379a000000000000000000000000000000000000000000000000000000000815260040161039490610d79565b60405180910390fd5b8060010160009054906101000a900473ffffffffffffffffffffffffffffffffffffffff1673ffffffffffffffffffffffffffffffffffffffff166323b872dd303384600201546040518463ffffffff167c010000000000000000000000000000000000000000000000000000000002815260040161041e93929190610db7565b600060405180830381600087803b15801561043857600080fd5b505af115801561044c573d6000803e3d6000fd5b505050508060000160019054906101000a900473ffffffffffffffffffffffffffffffffffffffff1673ffffffffffffffffffffffffffffffffffffffff166108fc82600301549081150290604051600060405180830381858888f193505050501580156104be573d6000803e3d6000fd5b507ff3debaf22196a6ddf52a60fa71058cd7edf5e25bb98f4e96c994a5d4a9b0dd3e82338360010160009054906101000a900473ffffffffffffffffffffffffffffffffffffffff1684600201548560030154604051610522959493929190610dee565b60405180910390a15050565b60006001600083815260200190815260200160002090506000600281111561055957610558610a7b565b5b8160000160009054906101000a900460ff16600281111561057d5761057c610a7b565b5b146105bd576040517f08c379a00000000000000000000000000000000000000000000000000000000081526004016105b490610e8d565b60405180910390fd5b3373ffffffffffffffffffffffffffffffffffffffff168160000160019054906101000a900473ffffffffffffffffffffffffffffffffffffffff1673ffffffffffffffffffffffffffffffffffffffff161461064f576040517f08c379a000000000000000000000000000000000000000000000000000000000815260040161064690610ef9565b60405180910390fd5b60028160000160006101000a81548160ff0219169083600281111561067757610676610a7b565b5b02179055508060010160009054906101000a900473ffffffffffffffffffffffffffffffffffffffff1673ffffffffffffffffffffffffffffffffffffffff166323b872dd303384600201546040518463ffffffff167c01000000000000000000000000000000000000000000000000000000000281526004016106fd93929190610db7565b600060405180830381600087803b15801561071757600080fd5b505af115801561072b573d6000803e3d6000fd5b505050507f8dd3c361eb2366ff27c2db0eb07b9261f1d052570742ab8c9a0c326f37aa576d8233604051610760929190610f19565b60405180910390a15050565b8273ffffffffffffffffffffffffffffffffffffffff166323b872dd3330856040518463ffffffff167c01000000000000000000000000000000000000000000000000000000000281526004016107c593929190610db7565b600060405180830381600087803b1580156107df57600080fd5b505af11580156107f3573d6000803e3d6000fd5b5050505060006040518060a001604052806000600281111561081857610817610a7b565b5b81526020013373ffffffffffffffffffffffffffffffffffffffff1681526020018573ffffffffffffffffffffffffffffffffffffffff168152602001848152602001838152509050806001600080600081548092919061087890610f71565b91905055815260200190815260200160002060008201518160000160006101000a81548160ff021916908360028111156108b5576108b4610a7b565b5b021790555060208201518160000160016101000a81548173ffffffffffffffffffffffffffffffffffffffff021916908373ffffffffffffffffffffffffffffffffffffffff16021790555060408201518160010160006101000a81548173ffffffffffffffffffffffffffffffffffffffff021916908373ffffffffffffffffffffffffffffffffffffffff16021790555060608201518160020155608082015181600301559050507f723f73331eaee88eec7fc68ef60ab6ed15e4b90d0472b55eb92fa43910bab6dd60005433868686604051610998959493929190610dee565b60405180910390a150505050565b6040518060a00160405280600060028111156109c5576109c4610a7b565b5b8152602001600073ffffffffffffffffffffffffffffffffffffffff168152602001600073ffffffffffffffffffffffffffffffffffffffff16815260200160008152602001600081525090565b600080fd5b6000819050919050565b610a2b81610a18565b8114610a3657600080fd5b50565b600081359050610a4881610a22565b92915050565b600060208284031215610a6457610a63610a13565b5b6000610a7284828501610a39565b91505092915050565b7f4e487b7100000000000000000000000000000000000000000000000000000000600052602160045260246000fd5b60038110610abb57610aba610a7b565b5b50565b6000819050610acc82610aaa565b919050565b6000610adc82610abe565b9050919050565b610aec81610ad1565b82525050565b600073ffffffffffffffffffffffffffffffffffffffff82169050919050565b6000610b1d82610af2565b9050919050565b610b2d81610b12565b82525050565b610b3c81610a18565b82525050565b60a082016000820151610b586000850182610ae3565b506020820151610b6b6020850182610b24565b506040820151610b7e6040850182610b24565b506060820151610b916060850182610b33565b506080820151610ba46080850182610b33565b50505050565b600060a082019050610bbf6000830184610b42565b92915050565b610bce81610b12565b8114610bd957600080fd5b50565b600081359050610beb81610bc5565b92915050565b600080600060608486031215610c0a57610c09610a13565b5b6000610c1886828701610bdc565b9350506020610c2986828701610a39565b9250506040610c3a86828701610a39565b9150509250925092565b600082825260208201905092915050565b7f4c697374696e67206973206e6f74206163746961766500000000000000000000600082015250565b6000610c8b601683610c44565b9150610c9682610c55565b602082019050919050565b60006020820190508181036000830152610cba81610c7e565b9050919050565b7f73656c6c65722063616e206e6f74206265206275796572000000000000000000600082015250565b6000610cf7601783610c44565b9150610d0282610cc1565b602082019050919050565b60006020820190508181036000830152610d2681610cea565b9050919050565b7f696e737566666963656e74207061796d656e7400000000000000000000000000600082015250565b6000610d63601383610c44565b9150610d6e82610d2d565b602082019050919050565b60006020820190508181036000830152610d9281610d56565b9050919050565b610da281610b12565b82525050565b610db181610a18565b82525050565b6000606082019050610dcc6000830186610d99565b610dd96020830185610d99565b610de66040830184610da8565b949350505050565b600060a082019050610e036000830188610da8565b610e106020830187610d99565b610e1d6040830186610d99565b610e2a6060830185610da8565b610e376080830184610da8565b9695505050505050565b7f4c697374696e67206973206e6f74206163746976617465000000000000000000600082015250565b6000610e77601783610c44565b9150610e8282610e41565b602082019050919050565b60006020820190508181036000830152610ea681610e6a565b9050919050565b7f4f6e6c792073656c6c65722063616e2063616e63656c206c697374696e670000600082015250565b6000610ee3601e83610c44565b9150610eee82610ead565b602082019050919050565b60006020820190508181036000830152610f1281610ed6565b9050919050565b6000604082019050610f2e6000830185610da8565b610f3b6020830184610d99565b9392505050565b7f4e487b7100000000000000000000000000000000000000000000000000000000600052601160045260246000fd5b6000610f7c82610a18565b91507fffffffffffffffffffffffffffffffffffffffffffffffffffffffffffffffff821415610faf57610fae610f42565b5b60018201905091905056fea26469706673582212209278e9fe751a18e6171c04abb9b07943a386a140a799cfd7d81f6a82989c1cfc64736f6c63430008090033",
  "immutableReferences": {},
  "source": "// SPDX-License-Identifier: MIT\r\npragma solidity ^0.8.9;\r\nimport  \"./IERC721.sol\";\r\n\r\n\r\ncontract Market{\r\n    \r\n\r\n    enum ListingStatus{\r\n        Actiave,\r\n        Sold,\r\n        Cancelled\r\n    }\r\n\r\n    struct Listing {\r\n        ListingStatus stauts;\r\n        address seller;\r\n        address token;\r\n        uint idToken;\r\n        uint price;\r\n    }\r\n\r\n\r\n    uint private _listingId = 0;\r\n\r\n    event Listed (\r\n        uint listingId,\r\n        address seller,\r\n        address token,\r\n        uint tokenId,\r\n        uint price\r\n    );\r\n\r\n    event Sale (\r\n        uint listingId,\r\n        address buyer,\r\n        address token,\r\n        uint tokenId,\r\n        uint price\r\n    );\r\n\r\n    event Cancel(    \r\n        uint listingId,\r\n        address seller\r\n    );\r\n\r\n    mapping(uint => Listing) private _listings;\r\n\r\n    function getListing(uint listingId) public view returns(Listing memory){\r\n        return _listings[listingId];\r\n    }\r\n\r\n    function listToken(address token, uint idToken, uint price) external {\r\n        IERC721(token).transferFrom(msg.sender, address(this) , idToken);\r\n        Listing memory listing = Listing(ListingStatus.Actiave ,\r\n            msg.sender,token,idToken,price);\r\n        _listings[_listingId++]  = listing;\r\n\r\n        emit Listed(_listingId, msg.sender, token, idToken, price);\r\n    }\r\n\r\n    function buyToken(uint listingId) external payable {\r\n        Listing storage listing = _listings[listingId];\r\n\r\n        require(listing.stauts == ListingStatus.Actiave, \r\n            \"Listing is not actiave\");\r\n\r\n        // if(listing.stauts != ListingStatus.Actiave){\r\n        //     revert(\"Listing is not actiave\");\r\n        // }\r\n\r\n        require(listing.seller != msg.sender, \r\n            \"seller can not be buyer\");\r\n        \r\n\r\n        \r\n        require(msg.value >= listing.price, \r\n            \"insufficent payment\");\r\n        IERC721(listing.token).transferFrom(address(this), msg.sender, \r\n            listing.idToken);\r\n\r\n        payable(listing.seller).transfer(listing.price);\r\n\r\n        emit Sale(listingId, msg.sender, listing.token, listing.idToken, listing.price);  \r\n    }\r\n\r\n    function cancel(uint listingId) public{\r\n        Listing storage listing = _listings[listingId];\r\n        // msg.sender is the caller of this functoin.\r\n        require(listing.stauts == ListingStatus.Actiave, \"Listing is not activate\");\r\n        require(listing.seller == msg.sender, \"Only seller can cancel listing\");\r\n\r\n        listing.stauts = ListingStatus.Cancelled;\r\n        IERC721(listing.token).transferFrom(address(this), msg.sender, \r\n            listing.idToken);\r\n\r\n        emit Cancel(listingId, msg.sender);\r\n    }\r\n}",
  "sourcePath": "D:\\creativity\\neft-market\\contracts\\Market.sol",
  "compiler": {
    "name": "solc",
    "version": "0.8.9+commit.e5eed63a.Emscripten.clang"
  },
  "schemaVersion": "3.4.7",
  "updatedAt": "2022-05-05T15:26:25.742Z",
  "devdoc": {
    "kind": "dev",
    "methods": {},
    "version": 1
  },
  "userdoc": {
    "kind": "user",
    "methods": {},
    "version": 1
  }
}